S01F00004F6E2D64656D616E642074726166666963206C696768742E737265637B
S11300000C942A000C942C010C9447000C94470087
S11300100C9447000C9447000C9447000C94470040
S11300200C9447000C9447000C9447000C94470030
S11300300C9447000C9447000C9447000C94470020
S11300400C9447000C9447000C9447000C94470010
S11300500C94470011241FBECFE5D8E0DEBFCDBF0E
S113006010E0A0E6B0E0EEECF6E002C005900D92E0
S1130070A236B107D9F720E0A2E6B0E001C01D9294
S1130080A636B207E1F70E9484010C9465030C9430
S1130090000060B3647084E40E943A0160E082E48A
S11300A00E94750161E082E40E94750162E082E4CD
S11300B00E94750160E081E40E94750161E081E4C1
S11300C00E94750162E081E40E9475010E94B202FF
S11300D0789485B7836085BF8BB780648BBF0895A0
S11300E00F931F93CF93DF938091600090916100F1
S11300F0892B09F05BC0C0916400D0916500C130C8
S1130100D10579F50E943E0162E082E40E94790102
S11301100E94640162E082E40E947D0160E082E466
S11301200E947901109265001092640062E081E4FB
S11301300E9479010E94B50260E082E40E947D0180
S113014001E010E0109365000093640062E081E434
S11301500E947D010E94640110936100009360007D
S113016027C00E943E01109265001092640062E074
S113017081E40E94790160E082E40E9479010E9496
S1130180B5020E94D70262E081E40E947D0160E032
S113019082E40E947D010E94640181E090E09093DA
S11301A0610080936000C1E0D0E002C0C0E0D0E014
S11301B0CE01DF91CF911F910F9108950E943E01CE
S11301C081E090E0909365008093640060E081E4B6
S11301D00E9479010E947000019781F30E94B50288
S11301E00E947000019751F381E090E090936500C4
S11301F08093640060E081E40E947D010E947000AD
S11302000197E1F20E9457010E9470000197B1F238
S1130210109265001092640062E081E40E9479010A
S11302200E947000019751F20E94B5020E94700072
S1130230019721F281E090E090936500809364003F
S113024062E081E40E947D010E947000019709F43C
S1130250B5CF0E945701B2CF1F920F920FB60F92E3
S1130260112410926100109260000F900FBE0F9045
S11302701F90189540E00E948901089560E082E48F
S11302800E947D0160E081E40E947D0161E082E4DE
S11302900E947D0161E081E40E947D0162E082E4CC
S11302A00E947D0162E081E40E947D0108950E9424
S11302B0250381E090E0909365008093640061E001
S11302C081E40E947D0108950E94F70261E082E4C6
S11302D00E947D0181E090E090936500809364002A
S11302E061E081E40E947D01089541E00E9489015A
S11302F0089540E00E940302089541E00E94030231
S113030008950E947B0208950E9449000E94DE0025
S1130310FDCF823431F118F4813439F008958334F7
S1130320E1F1843409F454C0089541110CC02AB396
S113033081E090E002C0880F991F6A95E2F78095EA
S113034082238ABB0895413009F05CC02AB381E05E
S113035090E002C0880F991F6A95E2F7822B8ABB4E
S1130360089541110CC027B381E090E002C0880FCA
S1130370991F6A95E2F78095822387BB08954130DF
S113038009F040C027B381E090E002C0880F991FB4
S11303906A95E2F7822B87BB089541110CC024B300
S11303A081E090E002C0880F991F6A95E2F780957A
S11303B0822384BB0895413029F524B381E090E081
S11303C002C0880F991F6A95E2F7822B84BB0895B7
S11303D041110CC021B381E090E002C0880F991F45
S11303E06A95E2F78095822381BB0895413051F4E8
S11303F021B381E090E002C0880F991F6A95E2F76B
S1130400822B81BB0895823429F118F4813439F0A8
S113041008958334D1F1843409F452C008954130ED
S113042061F42BB381E090E002C0880F991F6A95B4
S1130430E2F7809582238BBB089541115BC02BB3F7
S113044081E090E002C0880F991F6A95E2F7822B41
S11304508BBB0895413061F428B381E090E002C081
S1130460880F991F6A95E2F78095822388BB0895C7
S1130470411140C028B381E090E002C0880F991F69
S11304806A95E2F7822B88BB0895413061F425B365
S113049081E090E002C0880F991F6A95E2F7809589
S11304A0822385BB0895411125C025B381E090E0E6
S11304B002C0880F991F6A95E2F7822B85BB0895C5
S11304C0413061F422B381E090E002C0880F991FAB
S11304D06A95E2F78095822382BB089541110AC090
S11304E022B381E090E002C0880F991F6A95E2F779
S11304F0822B82BB08958234A1F018F4813431F048
S113050008958334C9F0843411F108952BB381E044
S113051090E002C0880F991F6A95E2F782278BBB8F
S1130520089528B381E090E002C0880F991F6A956E
S1130530E2F7822788BB089525B381E090E002C0EA
S1130540880F991F6A95E2F7822785BB089522B325
S113055081E090E002C0880F991F6A95E2F7822734
S113056082BB089513BE12BE089583B7816083BF12
S11305700FC008B600FEFDCF88B7816088BF8091A8
S113058062009091630001969093630080936200EF
S113059080916200909163008C349C4410F4829B9F
S11305A0E8CF109263001092620013BE089583B7DF
S11305B0816083BF0FC008B600FEFDCF88B781609D
S11305C088BF8091620090916300019690936300CC
S11305D08093620080916200909163008C349C440B
S11305E050F3109263001092620013BE089583B713
S11305F0816083BF1DC008B600FEFDCF88B781604F
S113060088BF80916200909163000196909363008B
S11306108093620061EA77E00E945103892B41F4E0
S113062061E082E40E94810161E081E40E94810131
S113063080916200909163008C349C44E0F21092AB
S113064063001092620013BE089583B7816083BF74
S113065019C008B600FEFDCF88B7816088BF8091BD
S1130660620090916300019690936300809362000E
S113067061EA77E00E945103892B21F461E081E46F
S11306800E94810180916200909163008C349C44AB
S113069010F4829BDECF109263001092620013BEAE
S11306A00895AA1BBB1B51E107C0AA1FBB1FA617B5
S11306B0B70710F0A61BB70B881F991F5A95A9F707
S11106C080959095BC01CD010895F894FFCF6C
S10506CE010025
S9030000FC
