S01F00004F6E2D64656D616E642074726166666963206C696768742E737265637B
S11300000C942A000C9436010C9447000C9447007D
S11300100C9447000C9447000C9447000C94470040
S11300200C9447000C9447000C9447000C94470030
S11300300C9447000C9447000C9447000C94470020
S11300400C9447000C9447000C9447000C94470010
S11300500C94470011241FBECFE5D8E0DEBFCDBF0E
S113006010E0A0E6B0E0EAEAF6E002C005900D92E6
S1130070A236B107D9F720E0A2E6B0E001C01D9294
S1130080A636B207E1F70E948E010C9453030C9438
S1130090000060B3647084E40E94440160E081E481
S11300A00E947F0161E081E40E947F0162E081E4BB
S11300B00E947F0160E082E40E947F0161E082E4AB
S11300C00E947F0162E082E40E947F010E94BC02E0
S11300D0789485B7836085BF8BB780648BBF0895A0
S11300E00F931F93CF93DF938091600090916100F1
S11300F0892B09F065C0C0916400D0916500C130BE
S1130100D10569F50E94480162E081E40E948301FF
S11301100E946E0162E081E40E94870160E081E454
S11301200E948301109265001092640062E082E4F0
S11301300E9483010E94BF0260E081E40E94870163
S113014001E010E0109365000093640062E082E433
S11301500E948701109361000093600033C00E94E5
S11301604801109265001092640062E082E40E94EB
S1130170830160E081E40E9483010E94BF02C1E028
S1130180D0E0D0936500C093640062E082E40E94F2
S113019087010E946E0160E081E40E94870162E0B1
S11301A081E40E948301D0936500C093640060E001
S11301B082E40E948301D0936100C093600002C076
S11301C0C0E0D0E0CE01DF91CF911F910F9108954F
S11301D00E94480181E090E0909365008093640060
S11301E060E082E40E9483010E947000019781F321
S11301F00E94BF020E947000019751F381E090E0D9
S1130200909365008093640060E082E40E9487011B
S11302100E9470000197E1F20E9461010E94700047
S11302200197B1F2109265001092640062E082E4DA
S11302300E9483010E947000019751F20E94BF0244
S11302400E947000019721F281E090E09093650094
S11302508093640062E082E40E9487010E9470003F
S1130260019709F4B5CF0E946101B2CF1F920F929A
S11302700FB60F92112410926100109260000F903B
S11302800FBE0F901F90189540E00E9493010895AF
S113029060E081E40E94870160E082E40E948701BB
S11302A061E081E40E94870161E082E40E948701A9
S11302B062E081E40E94870162E082E40E94870197
S11302C008950E94130381E090E090936500809369
S11302D0640061E082E40E94870108950E94E502BF
S11302E061E081E40E94870181E090E090936500E1
S11302F08093640061E082E40E948701089541E0F4
S11303000E949301089540E00E940D02089541E087
S11303100E940D0208950E94850208950E944900DA
S11303200E94E800FDCF823431F118F4813439F0B1
S113033008958334E1F1843409F454C008954111DB
S11303400CC02AB381E090E002C0880F991F6A951F
S1130350E2F7809582238ABB0895413009F05CC09E
S11303602AB381E090E002C0880F991F6A95E2F7F2
S1130370822B8ABB089541110CC027B381E090E021
S113038002C0880F991F6A95E2F78095822387BB84
S11303900895413009F040C027B381E090E002C0E5
S11303A0880F991F6A95E2F7822B87BB0895411144
S11303B00CC024B381E090E002C0880F991F6A95B5
S11303C0E2F78095822384BB0895413029F524B354
S11303D081E090E002C0880F991F6A95E2F7822BB2
S11303E084BB089541110CC021B381E090E002C0A8
S11303F0880F991F6A95E2F78095822381BB08953F
S1130400413051F421B381E090E002C0880F991F7C
S11304106A95E2F7822B81BB0895823429F118F49E
S1130420813439F008958334D1F1843409F452C00D
S11304300895413061F42BB381E090E002C0880F4D
S1130440991F6A95E2F7809582238BBB0895411129
S11304505BC02BB381E090E002C0880F991F6A95BE
S1130460E2F7822B8BBB0895413061F428B381E01D
S113047090E002C0880F991F6A95E2F78095822365
S113048088BB0895411140C028B381E090E002C0C8
S1130490880F991F6A95E2F7822B88BB0895413033
S11304A061F425B381E090E002C0880F991F6A953A
S11304B0E2F78095822385BB0895411125C025B3B9
S11304C081E090E002C0880F991F6A95E2F7822BC1
S11304D085BB0895413061F422B381E090E002C00D
S11304E0880F991F6A95E2F78095822382BB08954D
S11304F041110AC022B381E090E002C0880F991F25
S11305006A95E2F7822B82BB08958234A1F018F435
S1130510813431F008958334C9F0843411F108959D
S11305202BB381E090E002C0880F991F6A95E2F72F
S113053082278BBB089528B381E090E002C0880F26
S1130540991F6A95E2F7822788BB089525B381E055
S113055090E002C0880F991F6A95E2F7822785BB55
S1130560089522B381E090E002C0880F991F6A9534
S1130570E2F7822782BB089513BE12BE089583B7A3
S1130580816083BF10926300109262000FC008B6AE
S113059000FEFDCF88B7816088BF80916200909192
S11305A063000196909363008093620080916200DF
S11305B0909163008C349C4410F4829BE8CF109299
S11305C063001092620013BE089583B7816083BFF5
S11305D01DC008B600FEFDCF88B7816088BF80913A
S11305E0620090916300019690936300809362008F
S11305F061EA77E00E943F03892B41F461E081E4E2
S11306000E948B0161E082E40E948B018091620070
S1130610909163008C349C44E0F210926300109239
S1130620620013BE089583B7816083BF19C008B602
S113063000FEFDCF88B7816088BF809162009091F1
S113064063000196909363008093620061EA77E00F
S11306500E943F03892B21F461E082E40E948B0114
S113066080916200909163008C349C4410F4829BCE
S1130670DECF109263001092620013BE0895AA1B8D
S1130680BB1B51E107C0AA1FBB1FA617B70710F079
S1130690A61BB70B881F991F5A95A9F780959095AB
S10D06A0BC01CD010895F894FFCFCA
S10506AA010049
S9030000FC
