:100000000C942A000C942E010C9447000C94470089
:100010000C9447000C9447000C9447000C94470044
:100020000C9447000C9447000C9447000C94470034
:100030000C9447000C9447000C9447000C94470024
:100040000C9447000C9447000C9447000C94470014
:100050000C94470011241FBECFE5D8E0DEBFCDBF12
:1000600010E0A0E6B0E0E2EDF6E002C005900D92EF
:10007000A236B107D9F720E0A2E6B0E001C01D9298
:10008000A636B207E1F70E9486010C9467030C9430
:10009000000060B3647084E40E943C0160E082E48C
:1000A0000E94770161E082E40E94770162E082E4CD
:1000B0000E94770160E081E40E94770161E081E4C1
:1000C0000E94770162E081E40E9477010E94B402FD
:1000D000789485B7836085BF8BB780648BBF83E0DE
:1000E00090E008950F931F93CF93DF93809160006A
:1000F00090916100892B09F05BC0C0916400D091A0
:100100006500C130D10579F50E94400162E082E4CA
:100110000E947B010E94660162E082E40E947F01EE
:1001200060E082E40E947B011092650010926400FE
:1001300062E081E40E947B010E94B70260E082E4F9
:100140000E947F0101E010E01093650000936400BD
:1001500062E081E40E947F010E94660110936100C9
:100160000093600027C00E94400110926500109229
:10017000640062E081E40E947B0160E082E40E940E
:100180007B010E94B7020E94D90262E081E40E94D2
:100190007F0160E082E40E947F010E94660181E0AD
:1001A00090E09093610080936000C1E0D0E002C0D5
:1001B000C0E0D0E0CE01DF91CF911F910F91089563
:1001C0000E94400181E090E090936500809364007C
:1001D00060E081E40E947B010E947200019781F33C
:1001E0000E94B7020E947200019751F381E090E0F3
:1001F000909365008093640060E081E40E947F0139
:100200000E9472000197E1F20E9459010E9472005F
:100210000197B1F2109265001092640062E081E4EF
:100220000E947B010E947200019751F20E94B70266
:100230000E947200019721F281E090E090936500A6
:100240008093640062E081E40E947F010E9472005A
:10025000019709F4B5CF0E945901B2CF1F920F92B6
:100260000FB60F92112410926100109260000F904F
:100270000FBE0F901F90189540E00E948B010895CB
:1002800060E082E40E947F0160E081E40E947F01DF
:1002900061E082E40E947F0161E081E40E947F01CD
:1002A00062E082E40E947F0162E081E40E947F01BB
:1002B00008950E94270381E090E090936500809369
:1002C000640061E081E40E947F0108950E94F902C8
:1002D00061E082E40E947F0181E090E090936500FC
:1002E0008093640061E081E40E947F01089541E011
:1002F0000E948B01089540E00E940502089541E0AC
:100300000E94050208950E947D0208950E944900FE
:100310000E94E000FDCF823431F118F4813439F0CD
:1003200008958334E1F1843409F454C008954111EF
:100330000CC02AB381E090E002C0880F991F6A9533
:10034000E2F7809582238ABB0895413009F05CC0B2
:100350002AB381E090E002C0880F991F6A95E2F706
:10036000822B8ABB089541110CC027B381E090E035
:1003700002C0880F991F6A95E2F78095822387BB98
:100380000895413009F040C027B381E090E002C0F9
:10039000880F991F6A95E2F7822B87BB0895411158
:1003A0000CC024B381E090E002C0880F991F6A95C9
:1003B000E2F78095822384BB0895413029F524B368
:1003C00081E090E002C0880F991F6A95E2F7822BC6
:1003D00084BB089541110CC021B381E090E002C0BC
:1003E000880F991F6A95E2F78095822381BB089553
:1003F000413051F421B381E090E002C0880F991F91
:100400006A95E2F7822B81BB0895823429F118F4B2
:10041000813439F008958334D1F1843409F452C021
:100420000895413061F42BB381E090E002C0880F61
:10043000991F6A95E2F7809582238BBB089541113D
:100440005BC02BB381E090E002C0880F991F6A95D2
:10045000E2F7822B8BBB0895413061F428B381E031
:1004600090E002C0880F991F6A95E2F78095822379
:1004700088BB0895411140C028B381E090E002C0DC
:10048000880F991F6A95E2F7822B88BB0895413047
:1004900061F425B381E090E002C0880F991F6A954E
:1004A000E2F78095822385BB0895411125C025B3CD
:1004B00081E090E002C0880F991F6A95E2F7822BD5
:1004C00085BB0895413061F422B381E090E002C021
:1004D000880F991F6A95E2F78095822382BB089561
:1004E00041110AC022B381E090E002C0880F991F39
:1004F0006A95E2F7822B82BB08958234A1F018F44A
:10050000813431F008958334C9F0843411F10895B1
:100510002BB381E090E002C0880F991F6A95E2F743
:1005200082278BBB089528B381E090E002C0880F3A
:10053000991F6A95E2F7822788BB089525B381E069
:1005400090E002C0880F991F6A95E2F7822785BB69
:10055000089522B381E090E002C0880F991F6A9548
:10056000E2F7822782BB089513BE12BE089583B7B7
:10057000816083BF0FC008B600FEFDCF88B78160E1
:1005800088BF809162009091630001969093630010
:100590008093620080916200909163008C349C444F
:1005A00010F4829BE8CF109263001092620013BE99
:1005B000089583B7816083BF0FC008B600FEFDCFEA
:1005C00088B7816088BF8091620090916300019636
:1005D0009093630080936200809162009091630029
:1005E0008C349C4450F3109263001092620013BE4E
:1005F000089583B7816083BF1DC008B600FEFDCF9C
:1006000088B7816088BF80916200909163000196F5
:10061000909363008093620061EA77E00E94530345
:10062000892B41F461E082E40E94830161E081E46E
:100630000E94830180916200909163008C349C44FD
:10064000E0F2109263001092620013BE089583B727
:10065000816083BF19C008B600FEFDCF88B78160F6
:1006600088BF80916200909163000196909363002F
:100670008093620061EA77E00E945303892B21F4A2
:1006800061E081E40E9483018091620090916300A7
:100690008C349C4410F4829BDECF10926300109245
:1006A000620013BE0895AA1BBB1B51E107C0AA1F1D
:1006B000BB1FA617B70710F0A61BB70B881F991F03
:1006C0005A95A9F780959095BC01CD010895F894AD
:0206D000FFCF5A
:0206D200010025
:00000001FF
