S01F00004F6E2D64656D616E642054726166666963206C696768742E737265639B
S113000029C00000B8C0000040C000003EC000008D
S11300103CC000003AC0000038C0000036C00000F8
S113002034C0000032C0000030C000002EC0000008
S11300302CC000002AC0000028C0000026C0000018
S113004024C0000022C0000020C000001EC0000028
S11300501CC0000011241FBECFE5D8E0DEBFCDBF19
S113006010E0A0E6B0E0E2E1F6E002C005900D92F7
S1130070A236B107D9F720E0A2E6B0E001C01D9294
S1130080A636B207E1F7F9D0C2C2BACF60B3647042
S113009084E47FD060E081E47FD061E081E47CD0BF
S11300A062E081E479D060E082E476D061E082E4C9
S11300B073D062E082E470D00FD2789485B7836005
S11300C085BF8BB780648BBF0895CF93DF938091F6
S11300D0600090916100892B49F5C0916400D09132
S11300E06500C130D10581F45AD0AAD0C2D0ADD0B8
S11300F0B1D079D0F4D1B3D06BD081E090E09093BB
S113010061008093600014C04AD06DD0A3D0E7D1C1
S11301105FD0AFD0A4D094D088D081E090E0909309
S1130120610080936000C1E0D0E002C0C0E0D0E094
S1130130CE01DF91CF91089532D077D0C6DF0197F9
S1130140D9F3CDD1C2DF0197B9F364D0BEDF0197F3
S113015099F35DD0BADF019779F345D0B6DF019703
S113016059F3BDD1B2DF019739F332D0AEDF019735
S113017019F34DD0E1CF1F920F920FB60F921124B5
S113018010926100109260000F900FBE0F901F90AC
S1130190189540E075C0089541E072C0089541E0AB
S11301A060E081E4E7D041E060E082E4E3D041E054
S11301B061E081E4DFD041E061E082E4DBD041E052
S11301C062E081E4D7D041E062E082E4D3C00895E4
S11301D081E090E0909365008093640041E062E0E8
S11301E082E4C8C00895109265001092640040E053
S11301F062E082E4BFC0089581E090E090936500DE
S11302008093640041E061E082E4B4C00895BCD10D
S1130210F3CF089581E090E09093650080936400AB
S113022041E060E082E4A6C0089581E090E090930C
S113023065008093640040E060E082E49BC0089520
S113024040E062E081E496C0089541E062E081E428
S113025091C0089540E060E081E48CC0089541E0DD
S113026060E081E487C0089541E061E081E482C0F8
S1130270089558D1F9DFC0CF089508DF5DDFFECFC0
S1130280823431F118F4813439F008958334E1F182
S1130290843409F454C0089541110CC02AB381E098
S11302A090E002C0880F991F6A95E2F78095822337
S11302B08ABB0895413009F05CC02AB381E090E024
S11302C002C0880F991F6A95E2F7822B8ABB0895B2
S11302D041110CC027B381E090E002C0880F991F40
S11302E06A95E2F78095822387BB0895413009F02F
S11302F040C027B381E090E002C0880F991F6A953F
S1130300E2F7822B87BB089541110CC024B381E02E
S113031090E002C0880F991F6A95E2F780958223C6
S113032084BB0895413029F524B381E090E002C0F4
S1130330880F991F6A95E2F7822B84BB08954111B7
S11303400CC021B381E090E002C0880F991F6A9528
S1130350E2F78095822381BB0895413051F421B3A3
S113036081E090E002C0880F991F6A95E2F7822B22
S113037081BB0895823429F118F4813439F0089549
S11303808334D1F1843409F452C00895413061F4C6
S11303902BB381E090E002C0880F991F6A95E2F7C1
S11303A0809582238BBB089541115BC02BB381E000
S11303B090E002C0880F991F6A95E2F7822B8BBBED
S11303C00895413061F428B381E090E002C0880FC1
S11303D0991F6A95E2F78095822388BB089541119D
S11303E040C028B381E090E002C0880F991F6A954D
S11303F0E2F7822B88BB0895413061F425B381E094
S113040090E002C0880F991F6A95E2F780958223D5
S113041085BB0895411125C025B381E090E002C059
S1130420880F991F6A95E2F7822B85BB08954130A6
S113043061F422B381E090E002C0880F991F6A95AD
S1130440E2F78095822382BB089541110AC022B34A
S113045081E090E002C0880F991F6A95E2F7822B31
S113046082BB08958234B9F018F4813431F00895D0
S11304708334E1F0843429F108958BB380588BBB25
S11304802BB381E090E002C0880F991F6A95E2F7D0
S113049082278BBB089528B381E090E002C0880FC7
S11304A0991F6A95E2F7822788BB089525B381E0F6
S11304B090E002C0880F991F6A95E2F7822785BBF6
S11304C0089522B381E090E002C0880F991F6A95D5
S11304D0E2F7822782BB089513BE12BE089583B744
S11304E0816083BF1092630010926200829914C0ED
S11304F008B600FEFDCF88B7816088BF8091620096
S113050090916300019690936300809362008C3411
S11305109C4410F4829BECCF109263001092620012
S113052013BE0895CF93DF9383B7816083BFC1EA7D
S1130530D7E019C008B600FEFDCF88B7816088BF38
S11305408091620090916300019690936300809380
S11305506200BE0148D0892B31F461E081E482DF7E
S113056061E082E47FDF80916200909163008C34CB
S11305709C4410F4829BDECF1092630010926200C0
S113058013BEDF91CF910895CF93DF9383B781603A
S113059083BFC1EAD7E016C008B600FEFDCF88B716
S11305A0816088BF8091620090916300019690936E
S11305B0630080936200BE0116D0892B19F461E0B8
S11305C082E450DF80916200909163008C349C44FB
S11305D010F4829BE1CF109263001092620013BE6C
S11305E0DF91CF910895AA1BBB1B51E107C0AA1F3D
S11305F0BB1FA617B70710F0A61BB70B881F991FC0
S11306005A95A9F780959095BC01CD010895F89469
S1050610FFCF16
S10506120100E1
S9030000FC
